:020000040800F2
:100000000007002089010008531A0008751600082F
:10001000511A00083D060008B91D00080000000044
:10002000000000000000000000000000331C000879
:100030008F06000800000000311C0008351C000875
:10004000A3010008A3010008A3010008A301000800
:10005000A3010008A3010008A3010008A3010008F0
:10006000A3010008A3010008A3010008A3010008E0
:10007000A3010008A3010008A3010008A3010008D0
:10008000A3010008A3010008A3010008A3010008C0
:10009000A3010008A3010008A3010008A3010008B0
:1000A000A3010008A3010008A3010008A3010008A0
:1000B000A3010008A3010008A3010008A301000890
:1000C000A3010008A3010008A3010008A301000880
:1000D000A3010008A3010008A3010008A301000870
:1000E000A3010008A3010008A301000800F002F822
:1000F00000F03AF80AA090E8000C82448344AAF188
:100100000107DA4501D100F02FF8AFF2090EBAE885
:100110000F0013F0010F18BFFB1A43F0010318473B
:100120006C1D00008C1D0000103A24BF78C878C1F7
:10013000FAD8520724BF30C830C144BF04680C60ED
:10014000704700000023002400250026103A28BF35
:1001500078C1FBD8520728BF30C148BF0B60704739
:100160001FB51FBD10B510BD00F058F81146FFF7C0
:10017000F7FF01F032FE00F076F803B4FFF7F2FF6C
:1001800003BC00F07DF8000009488047094800479B
:10019000FEE7FEE7FEE7FEE7FEE7FEE7FEE7FEE737
:1001A000FEE7FEE704480549054A064B7047000094
:1001B000971C0008ED000008000100200007002047
:1001C00000030020000300204FF0000200B513469A
:1001D00094469646203922BFA0E80C50A0E80C5067
:1001E000B1F12001BFF4F7AF090728BFA0E80C5018
:1001F00048BF0CC05DF804EB890028BF40F8042B11
:1002000008BF704748BF20F8022B11F0804F18BF7D
:1002100000F8012B7047704770477047754600F033
:100220002BF8AE4605006946534620F00700854688
:1002300018B020B5FFF7B6FFBDE820404FF000062C
:100240004FF000074FF000084FF0000B21F00701BE
:10025000AC46ACE8C009ACE8C009ACE8C009ACE801
:10026000C0098D46704710B50446AFF300802046A4
:10027000BDE81040FFF781BF00487047A000002094
:1002800001491820ABBEFEE7260002007047F0B51A
:100290008FB0012105A800F0D2F99DF81620BDF815
:1002A00014000DF1170100F09BF9A8BB00F05AFDF6
:1002B000054601AC00262AE00AAA0CA909A800F00C
:1002C0005DF920B3BDF82400ADF804009DF82820A6
:1002D0008DF8062000202118401CC0B2CE700828DE
:1002E000F9D300210CA804E0435C6718491CFB709B
:1002F000C9B29142F8D38DF8206008A901A800F096
:10030000B5F9012803D19DF82000012805D000F09F
:1003100029FD401B6428CFD300200FB0F0BD1FB5CE
:100320000121684600F08BF9BDF800004FF480749D
:10033000A04236D19DF80200082832D19DF8030072
:1003400001282ED100208DF80C0003A9684600F08A
:100350008DF9012825D19DF80C00012821D100211B
:10036000684600F06CF901208DF80C0003A968467E
:1003700000F07CF9012814D19DF80C0088B9601CAC
:10038000ADF8000003A9684600F070F948B9ADF86F
:10039000004007208DF8020003A9684600F066F9C6
:1003A00010B1002004B010BD0120FBE770B50E466F
:1003B000054600240DE0012000F034F9304600F03D
:1003C000C5FB002000F02EF9304600F0BFFB641C96
:1003D000E4B2AC42EFD370BD70B500F07DF800F030
:1003E0005BF801F07BFCFFF79AFF4FF4487418B9F3
:1003F00021460120FFF7DAFF00F0A2F84FF4C8759C
:1004000010B12946012007E0FFF741FF10B13C2160
:10041000042001E029460220FFF7C8FF204600F033
:1004200095FB01F039FC00F019F8BDE8704001F0CF
:100430008DBC10B500F062F828B100F041F800F072
:100440000DF801F0A3FC00F00DF8002805D000F035
:1004500005F8BDE8104001F083BC10BD00487047AE
:100460001400002010B500F07DFC0A490A68821AC9
:10047000B2F57A7F0CD30860081D817831B1002174
:1004800081704168491C4160012010BD0121F7E7DE
:10049000002010BD10000020084810B50021017098
:1004A00041708170416000F05DFC0449091F0860E3
:1004B000BDE81040002000F0B5B800001400002096
:1004C0000449087818B10020087000F0ABB801208A
:1004D000FAE700001400002010B54FF40061054851
:1004E00000F036FC044C2070607000F03BFC606053
:1004F00010BD0000000C01401C00002010B54FF49E
:1005000000610D4800F024FC044600F02BFC0B4970
:100510000A78944201D00C7048604A68801A142806
:1005200005D34A780878824201D0487008B100208B
:1005300010BD012010BD0000000C01401C00002077
:1005400000B58BB0002000900190029003900490C1
:10055000059006900120079008900E2009906946AA
:10056000054800F0F5F820B9034800F0C3FA002868
:1005700000D001200BB000BD2400002070B58AB06F
:1005800014460D46060015D0A5B19CB100211348B4
:1005900000F056F900280ED007AB6A4600210F483C
:1005A00000F05FF930B9029820B9039810B90498A7
:1005B000082802D900200AB070BD00983080049845
:1005C0002070002007A903E00A5C2A54401CC0B236
:1005D00022788242F8D80120EDE7000024000020B4
:1005E00030B589B009B1082A02D9012009B030BD5F
:1005F000002306AC03E0CD5CE5545B1CDBB2934208
:10060000F9D30090002001900290CDE903028DF80B
:10061000140008AB22466946014800F03BF8E5E7C4
:100620002400002028B100224FF40051024800F0BD
:1006300094BB0122F8E7000000100140FEE710B56E
:10064000002812D04FF480720280082282700022AB
:1006500013468418521CD2B2E370082AF9D3002939
:1006600003D0C17841F00101C17010BD38B131B182
:100670000288B2F5807F02D18278082A01D000205A
:100680007047C07800F00100087001207047704783
:1006900072B6FEE7F0B590F820500468A468012D0A
:1006A00005D0022D03D0416A41F480214DE014F0C1
:1006B000406F01D1E50045D5C4F301640125A54093
:1006C0001D608D684FF4C0739DB1CE6835434E6890
:1006D00045EAC605066803EB0417F5514FF4C275E9
:1006E000076805EB04150E697E51097D012905D0C7
:1006F00009E00E88CD6845EA4655EBE701684E599A
:1007000046F480764E511179D2F805504FF4C676F2
:1007100041EA0521056806EB0416A9511178D2F8C3
:1007200001204FF4C47541EA0221026805EB04156B
:100730005151006803EB0411425842F0010242504B
:100740000020F0BD416A41F4001141620120F0BD7A
:1007500010B590F820300268012B07D0022B05D08D
:10076000416A41F480214162012010BDD2F80002AB
:1007700040F00100C2F80002087D00F01F030120D4
:100780009840D2F81C328343C2F81C32CB69B3B90B
:10079000D2F80C328343C2F80C328C894B6864F374
:1007A0001F434C6902EBC404C4F840320C890B6847
:1007B00064F31F434C6902EBC404C4F84432CB69B0
:1007C000012B16D1D2F80C320343C2F80C320C883C
:1007D0004B6864F31F434C6902EBC404C4F8403215
:1007E0000C89CB6864F31F434C6902EBC404C4F862
:1007F00044328B69002BD2F804320FD053EA000345
:10080000C2F804320B69002BD2F8143208D003432B
:10081000C2F81432096A012904D008E08343EFE7E3
:100820008343F5E7D2F81C120143C2F81C12D2F838
:10083000000220F00100C2F80002002010BD0000FC
:100840000246002092F82030012B01D0022B05D166
:10085000106821B1D0F8100000F003007047C068A4
:10086000FAE770B590F82040012C05D0022C03D097
:10087000416A41F4802128E0046809B32469A4078F
:1008800020D04FF4D874056804EB01142D5915F0ED
:100890000405956005682D591AD0ED085560056866
:1008A0002C5904F00204D4604FF4DA74056804EBA8
:1008B00001142E5906F00F06082E0CD308250DE062
:1008C000E468DCE7416A41F400114162012070BD37
:1008D0006D0D1560E3E72D5905F00F0515610568ED
:1008E0002D59C5F30725956105682C59240C5461D1
:1008F0004FF4DC72046802EB0112A4581C70046807
:10090000A458240A5C700468A458240C9C700468E1
:10091000A258120EDA704FF4DE72046802EB011274
:10092000A4581C710468A458240A5C710468A45873
:10093000240C9C710468A258120EDA71006829B167
:10094000016941F020010161002070BDC16841F0E2
:100950002001C160F8E770B5040003D094F82000CE
:1009600010B104E0012070BD204600F081F820683D
:10097000016841F00101016000F0F4F90546052627
:1009800004E000F0EFF9401B0A2811D82068406805
:10099000C007F6D02068016821F00201016000F074
:1009A000E1F905460BE000F0DDF9401B0A2806D905
:1009B000606A40F40030606284F82060D2E720680A
:1009C00040688007EFD4207E0128206801683DD070
:1009D00021F080010160607E01282068016838D024
:1009E00021F040010160A07E01282068016833D019
:1009F00021F020010160E07E0128206801682ED0EE
:100A000041F010010160207F01282068016829D091
:100A100021F008010160607F01282068016824D06E
:100A200021F004010160D4E902010843D4E9041271
:100A3000114308436168491E08432168C8610020CA
:100A40006062012084F82000002070BD41F0800128
:100A5000C0E741F04001C5E741F02001CAE721F0BD
:100A60001001CFE741F00801D4E741F00401D9E7D4
:100A700010B586B0002100910191029103910068A8
:100A8000184988422BD11848C16941F00071C161F1
:100A9000C16901F000710491816941F0080181612F
:100AA0008069124C00F0080004904FF480700090B0
:100AB0006946204600F05CF8601500900220019025
:100AC000032003906946204600F052F80848416828
:100AD00021F4C04141F0E06141F48041416006B041
:100AE00010BD00000064004000100240000C0140F6
:100AF0000000014070B5044690F82000012804D0A1
:100B0000606A40F40020606218E0022084F820004F
:100B10002068016821F00101016000F023F9054619
:100B20000EE000BF00F01EF9401B0A2808D9606AD9
:100B300040F400306062052084F82000012070BD80
:100B400020684068C007EDD1606270BD70B5044692
:100B500000F008F90546601C02D0044800780444FF
:100B600000F000F9401BA042FAD370BD0000002045
:100B70002DE9F84FDFF8B8910024A9F1040B2346C2
:100B80000F2709F1040AABF1040EC9E00125A540C5
:100B90002A40AA427DD1674ED1F804C0ACEB0608CA
:100BA000B44532D014DCBCF1030F3AD009DCBCF1FF
:100BB000000F2AD0BCF1010F1CD0BCF1020F31D1C3
:100BC0001DE0BCF1110F17D0BCF1120F2AD119E0B2
:100BD000B8F5881F19D006DCB8F5803F15D0B8F5F8
:100BE000801F1FD111E0B8F5001F0ED0B8F5041F0B
:100BF00018D10AE0CB6815E0CB681B1D12E0CB686A
:100C000008330FE0CB680C330CE08B682BB1012B61
:100C10004FF0080303D0456104E0042302E00561BE
:100C200000E00023FF2A01D8064601E000F1040697
:100C30004FEA840501D9A5F12005D6F8008007FA0E
:100C400005FC28EA0C0803FA05F548EA0508C6F889
:100C500000804D68ED0062D5374DAE6946F0010663
:100C6000AE61AD6924F0030605F001050095334D32
:100C700006EB050CDCF80850A607360F07FA06F855
:100C800025EA0805DFF8B880404503D14FF0000899
:100C900017E044E0DFF8AC80404502D14FF0010896
:100CA0000FE0DFF8A480404502D14FF0020808E0D1
:100CB000DFF89880404502D14FF0030801E04FF083
:100CC000040808FA06F848EA0508CCF808804D68D8
:100CD000D9F80060ED024D4601D5164300E0964379
:100CE0002E604D68DAF80060AD02554601D5164316
:100CF00000E096432E604D68DBF80060AD035D4672
:100D000001D5164300E096432E604D68DEF8006082
:100D1000ED03754601D5164300E096432E60641C32
:100D20000D682A46E5407FF431AFBDE8F88F00003A
:100D300008040140000011100010024000000140B2
:100D400000080140000C0140001001400014014067
:100D50008068084000D0012070470AB101617047E7
:100D60000904FBE70148806870470000000000208C
:100D700070B5040025D094F83D00002520B984F812
:100D80003C50204600F04EF9242084F83D002068B5
:100D9000016821F0010101602068016841F400410F
:100DA00001602068016821F40041016000F088FAC8
:100DB0004D4A6168914201D84C4900E04C49884253
:100DC00001D2012070BD4B492368B0FBF1F15E6890
:100DD00026F03F060E435E606368934206D94FF4E7
:100DE000967359434FF47A73B1FBF3F12368491CAE
:100DF0001E6A26F03F06314319626168914210D89D
:100E00004900401EB0FBF1F2521CC2F30B02042A4F
:100E100001D2042022E0B0FBF1F0401CC0F30B0033
:100E20001CE0A268F2B301EBC10303EB0116431E01
:100E3000B3FBF6F35B1C43F480431B0549D092B32C
:100E400001EBC10202EB0111401EB0FBF1F0401CAE
:100E5000C0F30B0040F4804040F400402168CA69B0
:100E60004CF6FF739A431043C861D4E9071001435D
:100E70002068026822F0C00211430160D4E9030136
:100E800001432068826848F2FF339A43114381602E
:100E9000D4E9050108432168CA6822F0FF02104323
:100EA000C86001E00EE016E02068016841F0010131
:100EB00001602564202084F83D00256384F83E50BD
:100EC000002070BD01EB4106431EB3FBF6F35B1C33
:100ED000B3E70120C2E701EB4101401EB0FBF1F096
:100EE000401CC0F30B00B7E7A086010080841E0001
:100EF00000093D0040420F002DE9F84F1F46904683
:100F00008A460446DDF82890FFF72CFF054694F842
:100F10003D0020287FD11923012240492046009519
:100F200000F03AFC002876D194F83C00012872D0F9
:100F3000012084F83C0020680168C90703D10168DA
:100F400041F0010101602068016821F40061016045
:100F5000212084F83D00102084F83E0000262664FD
:100F6000C4F824806785608D20852D48E0622B467B
:100F70004A465146204600F095FB90B920684169E9
:100F80008069009036E02A464946204600F0AAFCD7
:100F900050B1206C042804D12068016841F400712C
:100FA00001600120BDE8F88F606A2168007808615F
:100FB000606A401C6062618D491E6185218D491EF9
:100FC00089B2218522685369DB435B070BD451B199
:100FD00000781061606A401C6062608D401E608510
:100FE000208D401E20852A464946204600F0A8FB59
:100FF0000028CED1208D0028C5D154F83D0B0168C2
:1010000041F400710160202004F81E09E67766773C
:101010000020C7E7FFE70220C4E70000020010003D
:101020000000FFFF10B586B00021009101910291F0
:10103000039100680F4988421AD10F4CA06940F013
:101040000800A061A069694600F008000490C02073
:10105000009012200190032003900848FFF788FDBC
:10106000E06940F40010E061E06900F400100490D1
:1010700006B010BD0054004000100240000C0140BA
:1010800002488168027811448160704700000020A6
:10109000074810B5016841F010010160032000F01D
:1010A00067F80F2000F006F800F024F8002010BDCB
:1010B0000020024070B50D4D04464FF47A71287837
:1010C000B1FBF0F00A490968B1FBF0F000F0BEFA9C
:1010D00048B9102C07D200222146501E00F028F8F3
:1010E00000206C6070BD012070BD00000000002079
:1010F0000C0000200C4808B5816941F001018161B4
:10110000816901F001010091C16941F08051C16123
:10111000C06900F0805000900448416821F0E0610F
:1011200041F00071416008BD001002400000014024
:10113000F0B40E4B1B680C46C3F30223C3F1070542
:10114000042D00D90425191D072901D2002300E030
:10115000DB1E012606FA05F1491E214099409E40FA
:10116000761E16403143F0BC00F027BE0CED00E0C7
:10117000064900F0070208684FF6FF03184040EAEE
:101180000220034A10430860704700000CED00E0A5
:101190000000FA052DE9F0470F46050061D0434EE7
:1011A000306800F00700B84209D2306820F007002C
:1011B00038433060306800F00700B84251D12868E9
:1011C0003B4C810712D5400703D5606840F4E060CE
:1011D00060602878000703D5606840F46050606064
:1011E0006068A96820F0F000084360602878C007B4
:1011F00028D06868012810D02168022810D08907FB
:1012000000292EDA616821F0030101436160FFF7D4
:10121000A9FD804641F288390DE021688903EFE796
:101220008901EDE7FFF79EFDA0EB0801494502D9D2
:101230000320BDE8F0876068696800F00C00B0EB3F
:10124000810FEFD1306800F00700B8420BD9306849
:1012500020F0070038433060306800F00700B842E3
:1012600001D00120E5E72878400705D56068E968E6
:1012700020F4E060084360602878000706D56068C5
:10128000296920F4605040EAC100606000F028F84D
:101290006168084AC1F30311515CC84006490860FF
:1012A00006480068FFF706FF0020C2E70020024062
:1012B000001002400A1E00080C000020040000205C
:1012C0000448054900684968044AC1F30221515C99
:1012D000C84070470C000020001002401A1E000891
:1012E0000E4A51680E4801F00C03042B11D0082B54
:1012F0000FD10C48C1F38343C903C05C0AD55168C0
:10130000084AC1F34041921E515C054A5043B0FB6C
:10131000F1F0704704494843704700000010024054
:1013200000127A00FA1D000800093D002DE9F84F6F
:10133000040070D02078C04DC00749D06868C0F361
:101340008100012807D06868C0F38100022809D114
:101350006868C00306D52868800339D5606800280E
:10136000E7D035E06068B0F5803F0BD010B1B0F544
:10137000A02F11D0286820F480302860286820F43D
:10138000802002E0286840F480302860606890B1D6
:10139000FFF7E8FC06460AE0286840F48020286051
:1013A000F0E700BFFFF7DEFC801B642873D82868D5
:1013B0008003F7D50CE0FFF7D5FC064605E000BF3B
:1013C000FFF7D0FC801B6428F0D828688003F7D48E
:1013D00020789A4E80074FF001094FF0000839D568
:1013E000686810F00C0F07D06868C0F3810002280D
:1013F00009D16868C00306D42868800714D520691D
:10140000012808D110E02069B0B1C6F80090FFF7BC
:10141000A9FC074605E00AE1FFF7A4FCC01B02286F
:10142000C4D828688007F7D52868616920F0F800DB
:1014300040EAC10028600DE0C6F80080FFF792FC8A
:10144000074604E0FFF78EFCC01B022823D828685B
:101450008007F7D4207800072CD57948A169D9B145
:10146000C0F80090FFF77EFC074604E0FFF77AFC27
:10147000C01B02280FD8686A8007F7D571484FF45F
:10148000FA510068B0FBF1F0009000BF0098411ED7
:101490000091FAD20EE080E0C0F80080FFF762FC15
:1014A000074604E0FFF75EFCC01B022875D8686A97
:1014B0008007F7D42078400760D5E8690027C0008E
:1014C00008D4E86940F08050E861E869012700F03D
:1014D000805000905C480168C90513D401688346B8
:1014E00041F480710160FFF73DFC824606E000BFD9
:1014F000FFF738FCA0EB0A0064284ED8DBF80000A8
:10150000C005F5D5E06801280AD008B1052813D038
:10151000286A20F001002862286A20F0040002E016
:10152000286A40F001002862E06841F2883B98B1E7
:10153000FFF718FC82460BE0286A40F0040028629E
:10154000EEE700BFFFF70EFCA0EB0A0159455AD8A1
:10155000286A8007F6D50CE0FFF704FC824605E018
:10156000FFF700FCA0EB0A0159454CD8286A800718
:10157000F6D41FB1E86920F08050E861E06988B3D3
:101580006968C1F38101022944D00228C6F860804D
:1015900004D0FFF7E7FB044638E034E0FFF7E2FB56
:1015A000074604E0FFF7DEFBC01B02282BD82868A3
:1015B0008001F7D4206AB0F5803F05D16868A16842
:1015C00020F4003008436860D4E9080108436968E2
:1015D00021F4741108436860C6F86090FFF7C2FBFD
:1015E000044606E025E000BFFFF7BCFB001B022815
:1015F00009D828688001F7D51BE000BFFFF7B2FBD0
:10160000001B022802D90320BDE8F88F286880015A
:10161000F4D40EE00128F7D06868226A00F4803123
:10162000914204D1616A00F47010884201D0012017
:10163000EAE70020E8E70000001002400000424214
:10164000800442420C0000200070004010B5401E93
:10165000B0F1807F01D3012010BD4FF0E024606124
:101660000F21601700F0A9FB0020A0610720206176
:10167000002010BDFEE701684A69D24352050FD42D
:101680006FF480624A61002140F8301F20224273CB
:101690008173026942F00402026101730120704704
:1016A00000207047F8B50446C06A1E460D4617462E
:1016B000082807D0012805D010F5803F02D0206B04
:1016C000122804D12068016841F48071016013463A
:1016D00000224FF001112046009600F05DF840B165
:1016E00020680068C00502D54FF400702064032014
:1016F000F8BD2069B0F5804F0ED00620216800EAC1
:10170000D51040F0F000086133463A460B492046B8
:1017100000F08AF878B902E005F0FE0000E0E8B2D7
:1017200021680861054933463A46891F204600F082
:101730007BF80028DCD00120F8BD00000800010083
:1017400070B516460D4604461EE02046FFF793FF8F
:1017500008B1012070BD681C16D0FFF703FB801B89
:10176000A84200D885B920684069C04340070BD51E
:10177000002044F8300F20216173A073216941F0EB
:10178000200121612073E4E720684069C0434007DD
:10179000DBD4002070BD00002DE9F04798461746C5
:1017A0000D460446C1F30746DDF820902AE000BF4D
:1017B000B8F1FF3F26D0FFF7D5FAA0EB090141456C
:1017C00002D8B8F1000F1DD12068012E16D0806913
:1017D00025EA00000004000C12D00020B84211D10C
:1017E000002044F8300F20216173A073216941F07B
:1017F0002001216120730120BDE8F0874069E7E7FF
:101800000120EBE72068012E0AD0806925EA00005C
:101810000004000C06D00020B842C9D00020EBE73D
:101820004069F3E70120F7E72DE9F04798461646AF
:101830000D4604464FF000094FF0200AC1F3074758
:1018400023E020684069C043400515D42068016842
:1018500041F40071016021686FF480604861C4F850
:10186000309084F83DA084F83E90216C41F0040152
:10187000216484F83C9021E0701C06D0FFF772FAD6
:10188000A0EB0800B04203D816B1012F1FD021E011
:101890002068012F15D0806925EA00000004000CA3
:1018A00018D000BF44F8309F84F80DA084F80E9043
:1018B000216941F02001216184F80C900120BDE8EC
:1018C000F087406925EA00000004000CEAD1206896
:1018D000406901E02068806925EA00000004000CEE
:1018E000AFD1ECE770B516460D4604461EE0204623
:1018F000FFF7C1FE08B1012070BD681C16D0FFF7CC
:1019000031FA801BA84200D885B920684069C043DD
:1019100000060BD5002044F8300F20216173A0731E
:10192000216941F0200121612073E4E720684069CA
:10193000C0430006DBD4002070BD00000F4810B586
:101940000D490160042141600907816000214FF4C5
:101950004022C0E90312920042610176417681760D
:10196000C17601774177FEF7F6FF002803D0BDE886
:101970001040FEF78DBE10BD006400402400002022
:1019800070B586B000241F4800940194029403941B
:10199000816941F010018161816901F010010491B8
:1019A000816941F020018161816901F02001049188
:1019B000816941F008018161816901F008010491A8
:1019C000816941F0040181618069012200F0040015
:1019D0000D4E5503049029463046FFF7BEF902200C
:1019E000CDE9024000950125694601953046FFF793
:1019F000BFF8E8028DE8310069460448FFF7B8F8FF
:101A000006B070BD0010024000100140000C014003
:101A10000D4810B50B4901600C49416000214FF49D
:101A200080428160C0E9031241618161C16101624C
:101A3000FFF79EF9002803D0BDE81040FEF728BE4E
:101A400010BD0000005400404C000020A0860100A2
:101A5000FEE7FEE77FB5002000900190029004466B
:101A600003900021204600F079F8002510216846F7
:101A700000F0B0F86D1CEDB2082DF7D3641CE4B291
:101A8000082CEED37FBD0000472838D018DC422850
:101A900026D00CDC312853D004DC2E2853D030283B
:101AA00057D14AE03A2851D0412852D116E0432874
:101AB00019D044281AD045281BD0462849D11BE00C
:101AC0004838122845D2DFE800F01D204444234462
:101AD000262944442C442F44324444351E48704740
:101AE0001D48401D70471C480A3070471A480F3087
:101AF0007047194814307047174819307047164816
:101B00004630704714484B30704713481E307047BA
:101B10001148233070471048283070470E482D3048
:101B200070470D48323070470B48373070470A48CD
:101B30003C30704708484130704707480A387047C2
:101B40000548401F704704481438704702480F3852
:101B500070470148193870473B1E000810B50C4605
:101B600040F0B00000F026F804F00F0000F022F87A
:101B7000102040EA1410BDE8104000F01BB87CB5FE
:101B80001446FFF7EBFF6D4600260FE0641CFFF7DD
:101B90007BFF0021425C6A54491CC9B20529F9D374
:101BA0008DF805600621684600F014F820780028BA
:101BB000ECD17CBD1CB5002101918DF8050064209D
:101BC0000090022301AA78210148FFF795F91CBD76
:101BD0004C0000202DE9F04387B00D4606464FF03B
:101BE000400801AF4FF0FF391AE0102D01D9102441
:101BF00000E02C468DF80480002004E0315C3A18A7
:101C0000401C5170C0B2A042F8D3631C01AA7821D5
:101C10000648CDF80090FFF76FF9281B2644C5B29F
:101C2000002DE2D107B0BDE8F08300004C00002099
:101C300070477047FFF724BA30B58FB02821684647
:101C4000FEF7C2FA14210AA8FEF7BEFA0121080421
:101C5000CDE900100024029402250491CDE907503B
:101C60004FF4E01009906846FFF760FB08B172B6C8
:101C7000FEE70F20CDE90A054FF48060CDE90C4066
:101C800002210AA80E94FFF785FA002801D072B647
:101C9000FEE70FB030BD704710B5FFF7DBFE06A2C0
:101CA0000A210020FFF76BFF1421BDE8104007A2B6
:101CB0000220FFF764BF0000424F445920434F4EBB
:101CC00054524F4C2056302E3100000043414E3AC2
:101CD000204F46464C494E450000000010B5FFF726
:101CE000B9FE0BA20A210020FFF749FF0DA2142123
:101CF0000220FFF744FF0EA214210420FFF73FFF4C
:101D00001421BDE810400DA20620FFF738BF0000E7
:101D1000424F445920434F4E54524F4C2056302E80
:101D2000310000004F4C45443A204F4E0000000067
:101D300042544E3A205245414459000043414E3AE4
:101D4000204F46464C494E450000000010B5044661
:101D500000F01CF82046BDE8104000F001B800007B
:101D6000807808B103A200E005A214210620FFF745
:101D700006BF000048423A204F4E202000000000DD
:101D800048423A204F46462000000000007808B143
:101D900003A200E005A214210420FFF7F0BE00001A
:101DA0004C494748543A204F4E2000004C49474880
:101DB000543A204F46460000FEE70907090E002866
:101DC00004DB00F1E02080F80014704700F00F0001
:101DD00000F1E02080F8141D7047FFF759F9FFF774
:101DE0002BFFFFF7CDFDFFF713FEFFF7A7FDFEF773
:101DF000F3FAFEF71EFBFCE70102020304050607E7
:101E000008090A0B0C0D0E0F101000000000000056
:101E10000000010203040607080900000000010297
:101E2000030400000000000060600000003636007F
:101E3000003E5149453E00427F40007E1111117E17
:101E40007F494949363E414141227F4141221C7F21
:101E5000494949417F0909090100417F41007F400B
:101E60004040407F0204087F3E4141413E7F0919C6
:101E7000294601017F01011F2040201F070870082B
:101E8000073E415151327F0808087F00AC1E000810
:101E9000000000202400000028010008D01E0008D7
:101EA00024000020DC0600004401000801000000BE
:101EB000100000000000000000127A000000000086
:101EC0000000000000000000000000000000000012
:04000005080000ED02
:00000001FF
